{
  "contractName": "Sample",
  "abi": [
    {
      "inputs": [
        {
          "internalType": "int256",
          "name": "_a",
          "type": "int256"
        },
        {
          "internalType": "int256",
          "name": "_b",
          "type": "int256"
        }
      ],
      "name": "Sum",
      "outputs": [],
      "stateMutability": "nonpayable",
      "type": "function"
    },
    {
      "inputs": [],
      "name": "getSum",
      "outputs": [
        {
          "internalType": "int256",
          "name": "",
          "type": "int256"
        }
      ],
      "stateMutability": "view",
      "type": "function",
      "constant": true
    }
  ],
  "bytecode": "0x608060405234801561001057600080fd5b5061023e806100206000396000f3fe608060405234801561001057600080fd5b50600436106100365760003560e01c8063569c5f6d1461003b578063eb638f1214610059575b600080fd5b610043610075565b60405161005091906100b9565b60405180910390f35b610073600480360381019061006e9190610105565b61007e565b005b60008054905090565b6002818361008c9190610174565b6100969190610174565b6000819055505050565b6000819050919050565b6100b3816100a0565b82525050565b60006020820190506100ce60008301846100aa565b92915050565b600080fd5b6100e2816100a0565b81146100ed57600080fd5b50565b6000813590506100ff816100d9565b92915050565b6000806040838503121561011c5761011b6100d4565b5b600061012a858286016100f0565b925050602061013b858286016100f0565b9150509250929050565b7f4e487b7100000000000000000000000000000000000000000000000000000000600052601160045260246000fd5b600061017f826100a0565b915061018a836100a0565b9250817f7fffffffffffffffffffffffffffffffffffffffffffffffffffffffffffffff038313600083121516156101c5576101c4610145565b5b817f80000000000000000000000000000000000000000000000000000000000000000383126000831216156101fd576101fc610145565b5b82820190509291505056fea2646970667358221220c1567b50b426e4234eb79c608d378510c223c5e74188a247ecb1feabdd31dbf064736f6c63430008090033",
  "immutableReferences": {},
  "source": "// SPDX-License-Identifier: MIT\npragma solidity 0.8.9;\n\ncontract Sample {\n    int sum;\n    function Sum(int _a, int _b) public  {\n        sum=_a+_b+2;\n    }\n\n    function getSum() public view returns(int){\n        return sum;\n    }\n}",
  "sourcePath": "/Users/enespolat/Desktop/ethereum-truffle/contracts/Sample.sol",
  "compiler": {
    "name": "solc",
    "version": "0.8.9+commit.e5eed63a.Emscripten.clang"
  },
  "schemaVersion": "3.4.3",
  "updatedAt": "2021-11-09T12:00:12.659Z",
  "networkType": "ethereum",
  "devdoc": {
    "kind": "dev",
    "methods": {},
    "version": 1
  },
  "userdoc": {
    "kind": "user",
    "methods": {},
    "version": 1
  }
}